:100000000C942A000C9447000C94570B0C94470056
:100010000C9447000C9447000C9447000C94470044
:100020000C9447000C94BD060C9447000C944700B8
:100030000C9447000C9447000C9447000C94470024
:100040000C9447000C9447000C9447000C94470014
:100050000C94470011241FBECFE5D8E0DEBFCDBF12
:1000600011E0A0E6B0E0E0E0FFE102C005900D92F3
:10007000AE3DB107D9F711E0AEEDB1E001C01D9280
:10008000AF3EB107E1F70E94C90E0C947E0F0C94AD
:100090000000EF92FF920F931F937B018C0120E0F1
:1000A00030E040E05FE40E94CB0288238CF0C8017E
:1000B000B70120E030E040E05FE40E94C1010E940F
:1000C000FB029B01AC01205030404040504806C02C
:1000D000C801B7010E94FB029B01AC01B901CA0132
:1000E0001F910F91FF90EF900895A0E0B0E0EBE733
:1000F000F0E00C94470FDC012B01FA019C91923047
:1001000008F439C1EB018881823008F433C194309E
:1001100069F4843009F02FC111969C91119789815F
:10012000981709F428C1A0E6B0E025C1843009F48D
:1001300021C18230A9F4923009F01DC19A01AD01AC
:1001400088E0EA010990AE01E90109929E0181501F
:10015000C1F7E201898111969C918923818308C1AD
:10016000923009F407C112962D903C901397EB0141
:100170008A819B811496AD90BD90CD90DC901797AD
:10018000EC80FD800E811F819101281B390BB90184
:1001900037FF04C066277727621B730B6032710537
:1001A0000CF061C0121613066CF537014801062EDB
:1001B00004C096948794779467940A94D2F721E0C8
:1001C00030E040E050E004C0220F331F441F551FB1
:1001D0006A95D2F721503040404050402E213F21B7
:1001E00040235123211531054105510521F021E01E
:1001F00030E040E050E079018A01E628F72808293C
:1002000019293CC0232BD1F1260E371E350146019A
:10021000062E04C096948794779467940A94D2F734
:1002200021E030E040E050E004C0220F331F441FC3
:10023000551F6A95D2F721503040404050402A2146
:100240003B214C215D21211531054105510521F04E
:1002500021E030E040E050E059016A01A628B728CB
:10026000C828D9280BC0821593052CF01C01AA249C
:10027000BB24650103C0EE24FF24870111969C91E5
:10028000D20111968C91981709F445C0992339F041
:10029000A80197012A193B094C095D0906C0A6016E
:1002A00095012E193F09400B510B57FD08C01182D3
:1002B0003382228224833583468357831DC081E0A5
:1002C00081833382228288279927DC01821B930B4A
:1002D000A40BB50B84839583A683B7830DC0220F2F
:1002E000331F441F551F24833583468357838281E0
:1002F000938101979383828324813581468157813D
:10030000DA01C9010197A109B1098F5F9F4FAF4F72
:10031000BF4328F30BC0918333822282EA0CFB1C7B
:100320000C1D1D1DE482F5820683178383E0808304
:10033000248135814681578157FF1AC0C901AA27F8
:1003400097FDA095BA2F81709070A070B0705695EF
:10035000479537952795822B932BA42BB52B848318
:100360009583A683B7838281938101969383828349
:10037000DF0101C0D201CD01CDB7DEB7E2E10C94BF
:10038000630FA0E2B0E0E7ECF1E00C94530F698357
:100390007A838B839C832D833E834F835887E9E048
:1003A000EE2EF12CEC0EFD1ECE010196B7010E943F
:1003B000EC048E010F5E1F4FCE010596B8010E941E
:1003C000EC048A8991E089278A8BC701B801AE01C4
:1003D000475E5F4F0E9475000E941704A096E6E0FA
:1003E0000C946F0FA0E2B0E0E8EFF1E00C94530F33
:1003F00069837A838B839C832D833E834F835887C5
:10040000F9E0EF2EF12CEC0EFD1ECE010196B701A6
:100410000E94EC048E010F5E1F4FCE010596B801BD
:100420000E94EC04C701B801AE01475E5F4F0E9415
:1004300075000E941704A096E6E00C946F0FA8E1E7
:10044000B0E0E5E2F2E00C944F0F69837A838B838E
:100450009C832D833E834F835887B9E0EB2EF12C8C
:10046000EC0EFD1ECE010196B7010E94EC048E0138
:100470000F5E1F4FCE010596B8010E94EC0429853E
:10048000223008F47EC03989323010F4B8017CC0C3
:100490008A859A8989278A87243011F0223031F49D
:1004A000231709F06EC060E670E06EC0343039F496
:1004B0001D861E861F86188A1C861B8604C0323045
:1004C00021F484E08987B7015FC02B853C858B8947
:1004D0009C89281B390B3C872B87ED84FE840F8574
:1004E0001889AD88BE88CF88D88CEA14FB040C0527
:1004F0001D0540F4EE0CFF1C001F111F2150304061
:100500003C872B8720E030E040E050E080E090E046
:10051000A0E0B0E460E070E0EA14FB040C051D0507
:1005200040F0282B392B4A2B5B2BEA18FB080C09CF
:100530001D09B695A79597958795EE0CFF1C001F92
:10054000111F6F5F7F4F6F31710531F7DA01C901FC
:100550008F779070A070B07080349105A105B105BF
:1005600061F427FD0AC0E114F1040105110529F029
:10057000205C3F4F4F4F5F4F20782D873E874F873E
:10058000588BBE01675F7F4FCB010E9417046896AE
:10059000EAE00C946B0FA8E1B0E0E1EDF2E00C941E
:1005A000530F69837A838B839C832D833E834F8390
:1005B000588789E0E82EF12CEC0EFD1ECE01019645
:1005C000B7010E94EC048E010F5E1F4FCE0105960D
:1005D000B8010E94EC048985823040F0898982301C
:1005E00028F0C701B8010E94640501C08FEF68962A
:1005F000E6E00C946F0FACE0B0E0E1E0F3E00C94C7
:10060000570F69837A838B839C83CE010196BE0149
:100610006B5F7F4F0E94EC048D81823061F18230EC
:1006200050F1843021F48E81882351F12EC02F8126
:10063000388537FD20C06E812F3131051CF06623CF
:10064000F9F023C08EE190E0821B930B29853A8557
:100650004B855C8504C056954795379527958A95B7
:10066000D2F76623B1F050954095309521953F4FD4
:100670004F4F5F4F0EC020E030E040E050E009C037
:100680002FEF3FEF4FEF5FE704C020E030E040E0A6
:1006900050E8B901CA012C96E2E00C94730FA8E06F
:1006A000B0E0E5E5F3E00C944F0F7B018C016115A0
:1006B00071058105910519F482E0898360C083E0AA
:1006C00089838EE1C82ED12CDC82CB82ED82FE8222
:1006D0000F831887C801B7010E94C803FC01319736
:1006E000F7FF3BC0222733272E1B3F0B5701680122
:1006F000022E04C0D694C794B794A7940A94D2F754
:1007000040E050E060E070E081E090E0A0E0B0E028
:1007100004C0880F991FAA1FBB1F2A95D2F7019703
:10072000A109B1098E219F21A023B1230097A10522
:10073000B10521F041E050E060E070E04A295B291A
:100740006C297D294D835E836F8378878EE190E0ED
:100750008E1B9F0B9C838B8312C0309781F00E2ED3
:1007600004C0EE0CFF1C001F111F0A94D2F7ED828B
:10077000FE820F831887CE1ADF0ADC82CB821A82B0
:10078000CE0101960E9417042896EAE00C946B0FA4
:10079000EF92FF920F931F937B018C0180E0E8168C
:1007A00080E0F80681E0080780E0180788F48FEF02
:1007B000E816F1040105110531F028F088E090E019
:1007C000A0E0B0E017C080E090E0A0E0B0E012C090
:1007D00080E0E81680E0F80680E0080781E018076E
:1007E00028F088E190E0A0E0B0E004C080E190E073
:1007F000A0E0B0E020E230E040E050E0281B390B00
:100800004A0B5B0B04C016950795F794E7948A95FD
:10081000D2F7F701E859FF4F8081281B31094109C0
:100820005109C9011F910F91FF90EF900895DF9238
:10083000EF92FF920F931F93FC01E480F5800681F5
:100840001781D1808081823048F480E090E0A0E17F
:10085000B0E0E82AF92A0A2B1B2BA5C0843009F442
:100860009FC0823021F4EE24FF24870105C0E114EB
:10087000F1040105110519F4E0E0F0E096C0628191
:1008800073819FEF623879070CF05BC022E83FEF7D
:10089000261B370B2A3131052CF020E030E040E0F8
:1008A00050E02AC0B801A701022E04C076956795D2
:1008B000579547950A94D2F781E090E0A0E0B0E028
:1008C00004C0880F991FAA1FBB1F2A95D2F7019752
:1008D000A109B1098E219F21A023B1230097A10571
:1008E000B10521F081E090E0A0E0B0E09A01AB0119
:1008F000282B392B4A2B5B2BDA01C9018F7790709B
:10090000A070B07080349105A105B10539F427FFBE
:1009100009C0205C3F4F4F4F5F4F04C0215C3F4FE9
:100920004F4F5F4FE0E0F0E02030A0E03A07A0E05A
:100930004A07A0E45A0710F0E1E0F0E079018A01EB
:1009400027C06038710564F5FB01E158FF4FD801FD
:10095000C7018F779070A070B07080349105A105A9
:10096000B10539F4E7FE0DC080E490E0A0E0B0E00E
:1009700004C08FE390E0A0E0B0E0E80EF91E0A1F8B
:100980001B1F17FF05C016950795F794E79431963E
:1009900087E016950795F794E7948A95D1F705C0F7
:1009A000EE24FF248701EFEFF0E06E2F67956627B6
:1009B0006795902F9F77D794DD24D7948E2F8695B7
:1009C000492F462B582F5D29B701CA011F910F915E
:1009D000FF90EF90DF900895FC01DB014081518191
:1009E0002281622F6F7770E0221F2227221F9381BE
:1009F000892F880F822B282F30E0991F9927991F64
:100A000011969C93119721153105A9F541155105B2
:100A10006105710511F482E037C082E89FEF1396FB
:100A20009C938E9312979A01AB0167E0220F331FBC
:100A3000441F551F6A95D1F783E08C930DC0220F98
:100A4000331F441F551F12968D919C911397019748
:100A500013969C938E931297203080E0380780E0A5
:100A6000480780E4580758F314962D933D934D930F
:100A70005C93179708952F3F310579F4411551057F
:100A80006105710519F484E08C93089564FF03C037
:100A900081E08C9312C01C9210C02F5730401396E7
:100AA0003C932E93129783E08C9387E0440F551F5D
:100AB000661F771F8A95D1F7706414964D935D93E6
:100AC0006D937C93179708951F93DC01FB019C9114
:100AD000923008F447C08081823008F443C09430DB
:100AE00051F411961C91843099F58181682F70E042
:100AF000611B71093FC0843021F0923031F48230A3
:100B0000B9F18181882389F12DC011961C9111972B
:100B10008230F1F081811817D9F412962D913C9111
:100B20001397828193818217930794F028173907CE
:100B3000BCF014968D919D910D90BC91A02D2481B7
:100B4000358146815781281739074A075B0718F412
:100B5000112341F00AC082179307A407B50740F498
:100B6000112319F061E070E005C06FEF7FEF02C064
:100B700060E070E0CB011F910895DF93CF930F9257
:100B8000CDB7DEB7EFE4F0E01082EEE4F0E01082E3
:100B9000EDE4F0E08081EDE4F0E01082ECE4F0E0E0
:100BA00010820F90CF91DF910895DF93CF93CDB74F
:100BB000DEB7ECE4F0E08091E9019091EA01A091C8
:100BC000EB01B091EC0191838083EEE4F0E084E0EE
:100BD0008083CF91DF910895DF93CF93CDB7DEB7B8
:100BE000EEE4F0E01082CF91DF910895EF92FF9252
:100BF0000F931F93DF93CF93CDB7DEB72A970FB62E
:100C0000F894DEBF0FBECDBF9A8789878DEB97E33F
:100C1000A6E8B7E38D839E83AF83B88789859A85DD
:100C200028EE33E0B9010E94110FCB01CC01A0E006
:100C3000B0E0BC01CD010E944F03DC01CB01BC013F
:100C4000CD012D813E814F8158850E941F02DC011C
:100C5000CB01BC01CD010E944900DC01CB0189839D
:100C60009A83AB83BC8320E030E041E050E089818F
:100C70009A81AB81BC8179018A01E81AF90A0A0BD1
:100C80001B0BD801C7018093E9019093EA01A0935F
:100C9000EB01B093EC012A960FB6F894DEBF0FBEBD
:100CA000CDBFCF91DF911F910F91FF90EF900895ED
:100CB000DF93CF93CDB7DEB7A9E5B0E0E9E5F0E08B
:100CC000808184608C93CF91DF910895DF93CF93DF
:100CD000CDB7DEB7A9E5B0E0E9E5F0E080818F7D32
:100CE0008C93A9E5B0E0E9E5F0E080818F7E8C93FC
:100CF000A9E5B0E0E9E5F0E08081877F8C93A9E584
:100D0000B0E0E9E5F0E080818B7F8C93CF91DF91BB
:100D10000895DF93CF9300D000D000D0CDB7DEB7D9
:100D20009A8389837C836B835E834D8389819A81D7
:100D3000009731F089819A819093DF018093DE01E1
:100D40008B819C81009731F08B819C819093E10194
:100D50008093E0018D819E81009731F08D819E818D
:100D60009093E3018093E20126960FB6F894DEBFDC
:100D70000FBECDBFCF91DF9108951F920F920FB696
:100D80000F9211242F933F934F935F936F937F9311
:100D90008F939F93AF93BF93EF93FF93DF93CF9383
:100DA000CDB7DEB7ECE4F0E08091E9019091EA0183
:100DB000A091EB01B091EC01918380838091E401DB
:100DC0009091E501A091E601B091E7010196A11D86
:100DD000B11D8093E4019093E501A093E601B093E7
:100DE000E7018091E4019091E501A091E601B091C5
:100DF000E70181709070A070B0700097A105B105F7
:100E000029F4E091DE01F091DF0109958091E40180
:100E10009091E501A091E601B091E70126E030E074
:100E200040E050E0BC01CD010E94250FDC01CB0168
:100E30000097A105B10529F4E091E201F091E301E9
:100E400009958091E801813039F4E091E001F09159
:100E5000E10109951092E801CF91DF91FF91EF91A7
:100E6000BF91AF919F918F917F916F915F914F91C2
:100E70003F912F910F900FBE0F901F901895DF9309
:100E8000CF93CDB7DEB72B970FB6F894DEBF0FBE6A
:100E9000CDBF9D838C838C819D81009709F440C2D6
:100EA0001B823AC28B81882F90E09C01220F331F56
:100EB000220F331F8C819D81FC01E20FF31F808183
:100EC0009AE0692F0E94050F892F8A838B81882FD2
:100ED00090E09C01220F331F220F331F8C819D81D4
:100EE000FC01E20FF31F80819AE0692F0E94050F39
:100EF00089838B81882F90E09C01220F331F220F62
:100F0000331F8C819D81FC01E20FF31F82818823B6
:100F100089F08B81882F90E09C01220F331F220FD4
:100F2000331F8C819D81FC01E20FF31F8281813090
:100F300009F0EFC18981282F30E03B872A876A8535
:100F40007B8562307105D1F18A859B85833091055F
:100F500034F42A853B852130310571F094C06A85CF
:100F60007B856330710509F44BC08A859B8584308D
:100F7000910509F467C087C0AAE3B0E0EAE3F0E0B6
:100F800040818B81882F90E09C01220F331F220F1C
:100F9000331F8C819D81FC01E20FF31F8281282F7A
:100FA00030E08A81882F90E0B90102C0660F771F78
:100FB0008A95E2F7CB01842B8C9365C0A7E3B0E060
:100FC000E7E3F0E040818B81882F90E09C01220FC5
:100FD000331F220F331F8C819D81FC01E20FF31F11
:100FE0008281282F30E08A81882F90E0B90102C0E9
:100FF000660F771F8A95E2F7CB01842B8C9343C051
:10100000A4E3B0E0E4E3F0E040818B81882F90E03E
:101010009C01220F331F220F331F8C819D81FC0105
:10102000E20FF31F8281282F30E08A81882F90E021
:10103000B90102C0660F771F8A95E2F7CB01842BB6
:101040008C9321C0A1E3B0E0E1E3F0E040818B812B
:10105000882F90E09C01220F331F220F331F8C81B9
:101060009D81FC01E20FF31F8281282F30E08A81ED
:10107000882F90E0B90102C0660F771F8A95E2F7CA
:10108000CB01842B8C938B81882F90E09C01220FC5
:10109000331F220F331F8C819D81FC01E20FF31F50
:1010A0008181882389F08B81882F90E09C01220F19
:1010B000331F220F331F8C819D81FC01E20FF31F30
:1010C0008181813009F025C18981282F30E039875D
:1010D00028876885798562307105D1F18885998581
:1010E0008330910534F4288539852130310571F03C
:1010F00094C0688579856330710509F44BC0888593
:1011000099858430910509F467C087C0ABE3B0E0EE
:10111000EBE3F0E040818B81882F90E09C01220F6F
:10112000331F220F331F8C819D81FC01E20FF31FBF
:101130008181282F30E08A81882F90E0B90102C098
:10114000660F771F8A95E2F7CB01842B8C9365C0DD
:10115000A8E3B0E0E8E3F0E040818B81882F90E0E5
:101160009C01220F331F220F331F8C819D81FC01B4
:10117000E20FF31F8181282F30E08A81882F90E0D1
:10118000B90102C0660F771F8A95E2F7CB01842B65
:101190008C9343C0A5E3B0E0E5E3F0E040818B81B0
:1011A000882F90E09C01220F331F220F331F8C8168
:1011B0009D81FC01E20FF31F8181282F30E08A819D
:1011C000882F90E0B90102C0660F771F8A95E2F779
:1011D000CB01842B8C9321C0A2E3B0E0E2E3F0E0EA
:1011E00040818B81882F90E09C01220F331F220FBA
:1011F000331F8C819D81FC01E20FF31F8181282F19
:1012000030E08A81882F90E0B90102C0660F771F15
:101210008A95E2F7CB01842B8C938B81882F90E009
:101220009C01220F331F220F331F8C819D81FC01F3
:10123000E20FF31F8381882309F06BC08981282F77
:1012400030E03F832E836E817F816230710549F1EA
:101250008E819F818330910534F42E813F8121302E
:10126000310561F056C06E817F816330710561F197
:101270008E819F8184309105D1F14BC0ABE3B0E00A
:10128000EBE3F0E040818A81282F30E081E090E0BC
:10129000022E02C0880F991F0A94E2F7842B8C93C8
:1012A00038C0A8E3B0E0E8E3F0E040818A81282F6D
:1012B00030E081E090E0022E02C0880F991F0A946E
:1012C000E2F7842B8C9325C0A5E3B0E0E5E3F0E0E2
:1012D00040818A81282F30E081E090E0022E02C018
:1012E000880F991F0A94E2F7842B8C9312C0A2E313
:1012F000B0E0E2E3F0E040818A81282F30E081E035
:1013000090E0022E02C0880F991F0A94E2F7842B06
:101310008C938B818F5F8B838B818C3108F4C2CD52
:101320002B960FB6F894DEBF0FBECDBFCF91DF91E5
:101330000895DF93CF93CDB7DEB7AFE5B0E0EFE52B
:10134000F0E0808180688C93CF91DF910895DF93E6
:10135000CF93CDB7DEB7AFE5B0E0EFE5F0E0808149
:101360008F778C93CF91DF910895DF93CF93CDB793
:10137000DEB72C970FB6F894DEBF0FBECDBF9C83AF
:101380008B8382E08983ABE5B0E0EBE5F0E0808120
:1013900080688C93A5E5B0E0E5E5F0E080818860A9
:1013A0008C93A5E5B0E0E5E5F0E080818B7F8C9340
:1013B0008B819C81FC0132968081282F30E03C8714
:1013C0002B878B859C858130910509F47AC02B850C
:1013D0003C852230310509F4DCC08B859C85009763
:1013E00009F00AC1ABE5B0E0EBE5F0E08081806494
:1013F0008C938A81882F90E09C01220F331F8B8170
:101400009C81FC01E20FF31F8181282F30E03A8795
:10141000298789859A858130910521F129853A8529
:10142000223031052CF489859A85009761F047C0F8
:1014300029853A852230310521F189859A858330C5
:10144000910571F13CC0A5E5B0E0E5E5F0E08081F3
:101450008D7F8C93A5E5B0E0E5E5F0E080818E7F9F
:101460008C93CAC0A5E5B0E0E5E5F0E080818D7F12
:101470008C93A5E5B0E0E5E5F0E0808181608C9398
:10148000BBC0A5E5B0E0E5E5F0E0808182608C932B
:10149000A5E5B0E0E5E5F0E080818E7F8C93ACC0FF
:1014A000A5E5B0E0E5E5F0E0808182608C93A5E5FC
:1014B000B0E0E5E5F0E0808181608C939DC0198209
:1014C0009BC0ABE5B0E0EBE5F0E0808180688C93F9
:1014D0008B819C81FC0132968181282F30E03887F6
:1014E0002F838F8198858130910521F12F81388557
:1014F000223031052CF48F819885009761F047C028
:101500002F8138852230310521F18F8198858330F4
:10151000910571F13CC0A5E5B0E0E5E5F0E0808122
:10152000877F8C93A5E5B0E0E5E5F0E080818B7FD7
:101530008C9362C0A5E5B0E0E5E5F0E08081877FAF
:101540008C93A5E5B0E0E5E5F0E0808184608C93C4
:1015500053C0A5E5B0E0E5E5F0E0808188608C93BC
:10156000A5E5B0E0E5E5F0E080818B7F8C9344C099
:10157000A5E5B0E0E5E5F0E0808188608C93A5E525
:10158000B0E0E5E5F0E0808184608C9335C019829D
:1015900033C0ABE5B0E0EBE5F0E0808180628C9396
:1015A0008A81882F90E09C01220F331F8B819C81C0
:1015B000FC01E20FF31F8181282F30E03E832D8351
:1015C0008D819E818230910531F02D813E812330C5
:1015D000310549F010C0A4E5B0E0E4E5F0E0808119
:1015E0008F7B8C9309C0A4E5B0E0E4E5F0E0808156
:1015F00080648C9301C019822C960FB6F894DEBFDC
:101600000FBECDBFCF91DF910895DF93CF9300D070
:1016100000D0CDB7DEB78A8382E089838A81282F04
:1016200030E03C832B838B819C818130910589F054
:101630002B813C8122303105A1F08B819C81009768
:10164000C1F4ABE5B0E0EBE5F0E080818F7B8C93FB
:1016500011C0ABE5B0E0EBE5F0E080818F778C93D3
:1016600009C0ABE5B0E0EBE5F0E080818F7D8C93C5
:1016700001C019820F900F900F900F90CF91DF91C2
:101680000895DF93CF9300D0CDB7DEB79A838983D7
:1016900089819A81009731F089819A819093EE0136
:1016A0008093ED010F900F90CF91DF9108951F92DD
:1016B0000F920FB60F9211248F93DF93CF93CDB774
:1016C000DEB781E08093E801CF91DF918F910F9099
:1016D0000FBE0F901F901895DF93CF9300D000D0CE
:1016E00000D0CDB7DEB78C838C819AE0692F0E9441
:1016F000050F892F8B838C819AE0692F0E94050F3B
:101700008A838A81282F30E03E832D834D815E813C
:101710004230510541F18D819E818330910534F431
:101720002D813E812130310561F052C04D815E81B5
:101730004330510551F18D819E8184309105B9F17D
:1017400047C0E9E3F0E08081282F30E08B81882FCB
:1017500090E0A90102C0559547958A95E2F7CA0124
:101760008170898335C0E6E3F0E08081282F30E086
:101770008B81882F90E0A90102C0559547958A95E5
:10178000E2F7CA018170898323C0E3E3F0E080813E
:10179000282F30E08B81882F90E0A90102C0559559
:1017A00047958A95E2F7CA018170898311C0E0E309
:1017B000F0E08081282F30E08B81882F90E0A90114
:1017C00002C0559547958A95E2F7CA0181708983D1
:1017D000898126960FB6F894DEBF0FBECDBFCF919C
:1017E000DF910895DF93CF93CDB7DEB728970FB67B
:1017F000F894DEBF0FBECDBF8B836C838B819AE0E4
:10180000692F0E94050F892F8A838B819AE0692FA7
:101810000E94050F89838C81813009F070C0898115
:10182000282F30E038872F838F819885823091056B
:1018300051F12F8138852330310534F48F8198851B
:101840008130910561F0D3C02F8138852330310577
:1018500071F18F81988584309105E9F1C8C0ABE3BF
:10186000B0E0EBE3F0E08081482F8A81282F30E060
:1018700081E090E0022E02C0880F991F0A94E2F7DF
:10188000842B8C93B4C0A8E3B0E0E8E3F0E080815F
:10189000482F8A81282F30E081E090E0022E02C09C
:1018A000880F991F0A94E2F7842B8C93A0C0A5E3BC
:1018B000B0E0E5E3F0E08081482F8A81282F30E016
:1018C00081E090E0022E02C0880F991F0A94E2F78F
:1018D000842B8C938CC0A2E3B0E0E2E3F0E0808143
:1018E000482F8A81282F30E081E090E0022E02C04C
:1018F000880F991F0A94E2F7842B8C9378C08C810F
:10190000882309F074C08981282F30E03E832D831D
:101910008D819E818230910561F12D813E81233040
:10192000310534F48D819E818130910569F05FC06D
:101930002D813E812330310589F18D819E81843056
:10194000910509F440C053C0ABE3B0E0EBE3F0E035
:101950008081482F8A81282F30E081E090E0022E9C
:1019600002C0880F991F0A94E2F7809584238C9314
:101970003EC0A8E3B0E0E8E3F0E08081482F8A8130
:10198000282F30E081E090E0022E02C0880F991FDE
:101990000A94E2F7809584238C9329C0A5E3B0E0F4
:1019A000E5E3F0E08081482F8A81282F30E081E054
:1019B00090E0022E02C0880F991F0A94E2F78095EA
:1019C00084238C9314C0A2E3B0E0E2E3F0E08081D2
:1019D000482F8A81282F30E081E090E0022E02C05B
:1019E000880F991F0A94E2F7809584238C93289698
:1019F0000FB6F894DEBF0FBECDBFCF91DF91089533
:101A0000DF93CF9300D000D0CDB7DEB78A838A8131
:101A1000282F30E03C832B838B819C818230910581
:101A2000D9F02B813C812330310534F48B819C81AA
:101A30008130910561F01EC02B813C81233031053E
:101A400081F08B819C818430910581F013C0EBE3A0
:101A5000F0E0808189830EC0E8E3F0E08081898333
:101A600009C0E5E3F0E08081898304C0E2E3F0E0AF
:101A70008081898389810F900F900F900F90CF9173
:101A8000DF910895DF93CF9300D000D0CDB7DEB7BC
:101A900089836A838981282F30E03C832B838B8163
:101AA0009C8182309105D9F02B813C812330310516
:101AB00034F48B819C818130910561F01EC02B81B3
:101AC0003C812330310581F08B819C8184309105EC
:101AD00081F013C0EBE3F0E08A8180830EC0E8E37D
:101AE000F0E08A81808309C0E5E3F0E08A818083A9
:101AF00004C0E2E3F0E08A8180830F900F900F90A2
:101B00000F90CF91DF910895DF93CF9300D000D055
:101B10000F92CDB7DEB78B838B819AE0692F0E943D
:101B2000050F892F8A838B819AE0692F0E94050F08
:101B300089838981282F30E03D832C838C819D818E
:101B40008230910551F12C813D812330310534F4EF
:101B50008C819D818130910561F05AC02C813D813D
:101B60002330310571F18C819D8184309105E9F13B
:101B70004FC0ABE3B0E0EBE3F0E08081482F8A8117
:101B8000282F30E081E090E0022E02C0880F991FDC
:101B90000A94E2F784278C933BC0A8E3B0E0E8E323
:101BA000F0E08081482F8A81282F30E081E090E0AA
:101BB000022E02C0880F991F0A94E2F784278C93A3
:101BC00027C0A5E3B0E0E5E3F0E08081482F8A81FB
:101BD000282F30E081E090E0022E02C0880F991F8C
:101BE0000A94E2F784278C9313C0A2E3B0E0E2E307
:101BF000F0E08081482F8A81282F30E081E090E05A
:101C0000022E02C0880F991F0A94E2F784278C9352
:101C10000F900F900F900F900F90CF91DF9108953C
:101C2000DF93CF9300D00F92CDB7DEB78983898140
:101C3000282F30E03B832A838A819B818130910564
:101C4000F9F02A813B81223031052CF48A819B8175
:101C5000009761F01EC02A813B812230310559F086
:101C60008A819B818330910581F013C08BE161E013
:101C70000E94F20B0EC08EE061E00E94F20B09C0E0
:101C80008FE061E00E94F20B04C080E161E00E94FD
:101C9000F20B0F900F900F90CF91DF910895DF938B
:101CA000CF9300D00F92CDB7DEB789838981282FDB
:101CB00030E03B832A838A819B8181309105F9F052
:101CC0002A813B81223031052CF48A819B81009747
:101CD00061F01EC02A813B812230310559F08A8192
:101CE0009B818330910581F013C08BE160E00E94FD
:101CF000F20B0EC08EE060E00E94F20B09C08FE094
:101D000060E00E94F20B04C080E160E00E94F20BF0
:101D10000F900F900F90CF91DF910895DF93CF93A5
:101D200000D00F92CDB7DEB789838981282F30E0AC
:101D30003B832A838A819B8181309105E9F02A8146
:101D40003B81223031052CF48A819B81009761F020
:101D50001AC02A813B812230310551F08A819B8152
:101D60008330910569F00FC08BE10E94840D0BC098
:101D70008EE00E94840D07C08FE00E94840D03C096
:101D800080E10E94840D0F900F900F90CF91DF9112
:101D90000895DF93CF93CDB7DEB70E94BD0588E6E7
:101DA00091E00E94B50984EF91E00E94F60587EE6C
:101DB0009EE021EF3EE04BEF5EE0B9010E94890614
:101DC0000E94D5050E9458060E949909FFCFDF9313
:101DD000CF93CDB7DEB780E00E948E0ECF91DF911A
:101DE0000895DF93CF93CDB7DEB781E00E948E0ECA
:101DF000CF91DF910895DF93CF93CDB7DEB782E027
:101E00000E948E0ECF91DF910895991B79E004C056
:101E1000991F961708F0961B881F7A95C9F7809529
:101E20000895AA1BBB1B51E107C0AA1FBB1FA61721
:101E3000B70710F0A61BB70B881F991F5A95A9F773
:101E400080959095BC01CD010895A1E21A2EAA1BA0
:101E5000BB1BFD010DC0AA1FBB1FEE1FFF1FA2175A
:101E6000B307E407F50720F0A21BB30BE40BF50B57
:101E7000661F771F881F991F1A9469F760957095E0
:101E8000809590959B01AC01BD01CF0108952F92E3
:101E90003F924F925F926F927F928F929F92AF92FA
:101EA000BF92CF92DF92EF92FF920F931F93CF9347
:101EB000DF93CDB7DEB7CA1BDB0B0FB6F894DEBFDE
:101EC0000FBECDBF09942A88398848885F846E8404
:101ED0007D848C849B84AA84B984C884DF80EE804E
:101EE000FD800C811B81AA81B981CE0FD11D0FB657
:101EF000F894DEBF0FBECDBFED010895F894FFCF7B
:101F000000000000000000000001020203030303C0
:101F10000404040404040404050505050505050579
:101F20000505050505050505060606060606060659
:101F30000606060606060606060606060606060641
:101F40000606060606060606070707070707070729
:101F50000707070707070707070707070707070711
:101F60000707070707070707070707070707070701
:101F700007070707070707070707070707070707F1
:101F800007070707070707070808080808080808D9
:101F900008080808080808080808080808080808C1
:101FA00008080808080808080808080808080808B1
:101FB00008080808080808080808080808080808A1
:101FC0000808080808080808080808080808080891
:101FD0000808080808080808080808080808080881
:101FE0000808080808080808080808080808080871
:101FF0000808080808080808080808080808080861
:1020000008080808080808080002010202022F0157
:1020100000002E0100002D0100002B0100001B001C
:1020200001010E0001010F0001012B010000000061
:1020300000000000000000000000000000000000A0
:102040000000000000000000000000000000000090
:102050000000000000000000000000000000000080
:102060000000000000000000000000000000000070
:0E207000000000000000000000000000000062
:00000001FF
